:020000040800F2
:100000000050002079240008C9190008D1190008FF
:10001000D9190008E1190008E919000800000000DA
:10002000000000000000000000000000F1190008BE
:10003000FD19000800000000091A0008151A000840
:10004000C1240008C1240008C1240008C1240008FC
:10005000C1240008C1240008C1240008C1240008EC
:10006000C1240008C1240008C1240008C1240008DC
:10007000211A0008C1240008351A0008491A00088E
:100080005D1A0008711A0008C1240008C124000884
:10009000C1240008C1240008C1240008C1240008AC
:1000A000C1240008C1240008C1240008C12400089C
:1000B000851A0008C1240008C1240008991A000804
:1000C000AD1A0008C1240008C1240008C12400089A
:1000D000C1240008C11A0008C1240008C124000876
:1000E000C1240008C1240008C12400080000000049
:1000F0000000000000000000000000000000000000
:0C01000000000000000000005FF808F1A3
:10010C0010B5054C237833B9044B13B10448AFF345
:10011C0000800123237010BD180000200000000097
:10012C005498000808B5034B1BB103490348AFF3BF
:10013C00008008BD000000001C000020549800083E
:10014C0080F0004002E000BF81F0004142001FBF80
:10015C005FEA410392EA030F7FEA226C7FEA236C89
:10016C006AD04FEA1262D2EB1363C1BFD21841407E
:10017C0048404140B8BF5B42192B88BF704710F014
:10018C00004F40F4000020F07F4018BF404211F0B7
:10019C00004F41F4000121F07F4118BF494292EA1F
:1001AC00030F3FD0A2F1010241FA03FC10EB0C004B
:1001BC00C3F1200301FA03F100F0004302D54942D8
:1001CC0060EB4000B0F5000F13D3B0F1807F06D385
:1001DC0040084FEA310102F10102FE2A51D2B1F17D
:1001EC00004F40EBC25008BF20F0010040EA030072
:1001FC007047490040EB0000013A28BFB0F5000FF2
:10020C00EDD2B0FA80FCACF1080CB2EB0C0200FAA7
:10021C000CF0AABF00EBC25052421843BCBFD040F6
:10022C001843704792F0000F81F4000106BF80F470
:10023C0000000132013BB5E74FEA41037FEA226C33
:10024C0018BF7FEA236C21D092EA030F04D092F0FE
:10025C00000F08BF0846704790EA010F1CBF002032
:10026C00704712F07F4F04D1400028BF40F000408F
:10027C00704712F100723CBF00F50000704700F0AF
:10028C00004343F0FE4040F4000070477FEA2262D6
:10029C0016BF08467FEA23630146420206BF5FEAA7
:1002AC00412390EA010F40F4800070474FF00003A7
:1002BC0004E000BF10F0004348BF40425FEA000C6E
:1002CC0008BF704743F0964301464FF000001CE016
:1002DC0050EA010208BF70474FF000030AE000BF6C
:1002EC0050EA010208BF704711F0004302D54042AA
:1002FC0061EB41015FEA010C02BF8446014600201C
:10030C0043F0B64308BFA3F18053A3F50003BCFA36
:10031C008CF2083AA3EBC25310DB01FA02FC6344E3
:10032C0000FA02FCC2F12002BCF1004F20FA02F2EA
:10033C0043EB020008BF20F00100704702F12002DD
:10034C0001FA02FCC2F1200250EA4C0021FA02F23E
:10035C0043EB020008BF20EADC7070474FF0FF0C43
:10036C001CEAD0521EBF1CEAD15392EA0C0F93EA3E
:10037C000C0F6FD01A4480EA010C400218BF5FEAE0
:10038C0041211ED04FF0006343EA501043EA511153
:10039C00A0FB01310CF00040B1F5000F3EBF49004D
:1003AC0041EAD3715B0040EA010062F17F02FD2A51
:1003BC001DD8B3F1004F40EBC25008BF20F0010034
:1003CC00704790F0000F0CF0004C08BF49024CEA4B
:1003DC00502040EA51207F3AC2BFD2F1FF0340EADD
:1003EC00C250704740F400004FF00003013A5DDC4E
:1003FC0012F1190FDCBF00F000407047C2F100028F
:10040C00410021FA02F1C2F1200200FA02FC5FEA7B
:10041C00310040F1000053EA4C0308BF20EADC70C5
:10042C00704792F0000F00F0004C02BF400010F437
:10043C00000F013AF9D040EA0C0093F0000F01F0E4
:10044C00004C02BF490011F4000F013BF9D041EA06
:10045C000C018FE70CEAD15392EA0C0F18BF93EA08
:10046C000C0F0AD030F0004C18BF31F0004CD8D132
:10047C0080EA010000F00040704790F0000F17BFB9
:10048C0090F0004F084691F0000F91F0004F14D0FF
:10049C0092EA0C0F01D142020FD193EA0C0F03D157
:1004AC004B0218BF084608D180EA010000F000405A
:1004BC0040F0FE4040F40000704740F0FE4040F435
:1004CC00400070474FF0FF0C1CEAD0521EBF1CEAD4
:1004DC00D15392EA0C0F93EA0C0F69D0A2EB0302F2
:1004EC0080EA010C49024FEA402037D04FF080538C
:1004FC0043EA111143EA10130CF000408B4238BF51
:10050C005B0042F17D024FF4000C8B4224BF5B1A5E
:10051C0040EA0C00B3EB510F24BFA3EB510340EAAC
:10052C005C00B3EB910F24BFA3EB910340EA9C005A
:10053C00B3EBD10F24BFA3EBD10340EADC001B01CA
:10054C0018BF5FEA1C1CE0D1FD2A3FF650AF8B426E
:10055C0040EBC25008BF20F0010070470CF0004C7B
:10056C004CEA50207F32C2BFD2F1FF0340EAC250A6
:10057C00704740F400004FF00003013A37E792F067
:10058C00000F00F0004C02BF400010F4000F013AC5
:10059C00F9D040EA0C0093F0000F01F0004C02BFC0
:1005AC00490011F4000F013BF9D041EA0C0195E729
:1005BC000CEAD15392EA0C0F08D142027FF47DAFC2
:1005CC0093EA0C0F7FF470AF084676E793EA0C0FB2
:1005DC0004D14B023FF44CAF08466EE730F0004CB0
:1005EC0018BF31F0004CCAD130F000427FF45CAF40
:1005FC0031F000437FF43CAF5FE700BF4FEA4002AD
:10060C00B2F1FE4F0FD34FF09E03B3EB12620DD934
:10061C004FEA002343F0004310F0004F23FA02F09E
:10062C0018BF404270474FF00000704712F1610F45
:10063C0001D1420205D110F0004008BF6FF000401C
:10064C0070474FF00000704780B582B000AF786003
:10065C007B681B68B3F1804F60D1324B1B78002B49
:10066C005CD1314B1B889BB2002B07D02E4B1B88C7
:10067C009BB2013B9AB22C4B1A804FE02B4800F0F6
:10068C0007FD0346002B0ED02949284800F022FD17
:10069C000346002B07D1264800F0E0FF4FF48041C1
:1006AC00244802F0E7FE244B1B8801339AB2224BFC
:1006BC001A80214B1B881A46204B1B781946204B5D
:1006CC001B8801FB03F39A4205DB1B4B00221A80AB
:1006DC00164801F0FEF81B4B1B8801339AB2194BDC
:1006EC001A80184B1B881A46174B1B781946144B4B
:1006FC001B8801FB03F39A420ADB124B00221A807F
:10070C0012490A4801F0FFF802210A4802F0B2FE31
:10071C000F4B1B78002B01D001F022FD00BF0837D6
:10072C00BD4680BD3E0000203C000020480000205B
:10073C0044010020000C0140340000200000002087
:10074C000C00002036000020010000205C0100207D
:10075C003A00002080B483B000AF78607B681B68DF
:10076C00054A934202D1054B00221A7000BF0C3788
:10077C00BD4680BC704700BF0038014038000020E7
:10078C0080B582B000AF78607B681B68084A9342E2
:10079C0009D1084B1B78184601F024F801220549B1
:1007AC00054808F003F900BF0837BD4680BD00BFFF
:1007BC0000380140390000201802002080B584B0B8
:1007CC0000AF0346FB710B46BB7113467B71274B85
:1007DC0001221A70FB79184601F070FA03465B008F
:1007EC009AB2234B1A80234807F058FC224AFB7913
:1007FC001370224ABB791370214A7B791370FB79F1
:10080C00184601F05BFA0346FB81FB79184601F0B0
:10081C0089FA03467B737B7B19461A4800F024FD4A
:10082C000346002B1AD1FB89184601F0EFF9BB796E
:10083C001946144800F058FD0346002B10D17B7963
:10084C001946104800F096FD0346002B0AD10948C2
:10085C0007F0DAFB054B00221A7004E000BF02E03F
:10086C0000BF00E000BF1037BD4680BD3E00002039
:10087C003C00002084010020020000200300002026
:10088C000400002048000020B0B586B002AF7860AC
:10089C007B681B78FB737B685B78BB73FB7B353B9E
:1008AC001B2B00F2D48001A252F823F02909000876
:1008BC00430900086B09000883090008A109000816
:1008CC005B0A00085B0A00085B0A00085B0A000868
:1008DC005B0A00085B0A0008BF090008D50900087C
:1008EC00EB090008010A00085B0A00085B0A000813
:1008FC005B0A00085B0A00085B0A00085B0A000838
:10090C005B0A00085B0A00085B0A00085B0A000827
:10091C005B0A00085B0A00081D0A0008BB7B012B60
:10092C0040F097807B6802331B78002B40F091805D
:10093C0001F086FB8DE0BB7B032B40F08C807B6849
:10094C00023318787B68033319787B6804331B787F
:10095C001A46FFF733FF362001F044FB7BE0BB7BEC
:10096C00012B7AD17B6802331B78002B75D1444B59
:10097C0001221A7071E0BB7B012B70D17B680233B2
:10098C001B78002B6BD13E4B00221A70382001F0E3
:10099C0029FB64E0BB7B012B63D17B6802331B78A2
:1009AC00002B5ED1364B1B78002B5AD101F024FC66
:1009BC0057E0BB7B012B56D17B6802331B78002B95
:1009CC0051D101F065FC4EE0BB7B012B4DD17B6816
:1009DC0002331B78002B48D101F0C2FC45E0BB7BF5
:1009EC00012B44D17B6802331B78002B3FD101F0E3
:1009FC0003FD3CE0BB7B012B3BD17B6802331B78B6
:100A0C00002B36D100F08AF9432001F0EBFA30E0EC
:100A1C00BB7B062B2FD17B68023318787B680333A2
:100A2C0019787B6804331C787B6805331D787B68E8
:100A3C0006331B787A6807321278019200932B46A2
:100A4C00224601F0A3F9502001F0CCFA13E000BFCC
:100A5C0012E000BF10E000BF0EE000BF0CE000BFD2
:100A6C000AE000BF08E000BF06E000BF04E000BFE2
:100A7C0002E000BF00E000BF1037BD46B0BD00BFB4
:100A8C003A00002080B582B000AF1C4B5B691B4A5A
:100A9C0043F001035361194B5B6903F001037B6065
:100AAC007B68002200210C2001F063FE0C2001F079
:100ABC007CFE002200210E2001F05BFE0E2001F0D6
:100ACC0074FE002200210F2001F053FE0F2001F0D4
:100ADC006CFE00220021102001F04BFE102001F0D2
:100AEC0064FE00220021112001F043FE112001F0D0
:100AFC005CFE00BF0837BD4680BD00BF0010024041
:100B0C002DE9B04F8EB000AF00225049504806F08E
:100B1C00A7FD00224F494E4806F030FF02F07EF947
:100B2C000023BB624C4B3B6301237B6300237B6242
:100B3C0007F1240207F128031146184602F056FA71
:100B4C000346002B02D002F08FF97BE0434BB3F944
:100B5C0000309BB29BB200221C46154622462B4607
:100B6C003D49012002F0EAF83C4BB3F902309BB24C
:100B7C009BB200229846914642464B46384901208A
:100B8C0002F0DCF8354BB3F904309BB29BB2002277
:100B9C009A46934652465B463249012002F0CEF803
:100BAC002C4B9B781A462B4B5B781B021343DA17A2
:100BBC00BB61FA61D7E906232B49012002F0BEF88C
:100BCC00244BDB78DBB200223B617A61D7E904234A
:100BDC002649012002F0B2F81C4B1B781A461B4B1D
:100BEC005B781B021343DA17BB60FA60D7E9022368
:100BFC001F49012002F0A2F8144B9B78DBB20022B3
:100C0C003B607A60D7E900231A49012002F096F87C
:100C1C0002F02AF90F4B9A78174B9A700D4B5A78B1
:100C2C00154B5A700B4BDA78134BDA70074B1A785A
:100C3C00124B1A70054B5A78104B5A70034B9A781A
:100C4C000E4B9A703837BD46BDE8B08F14020020A9
:100C5C00300100201002002000FC0008540100208C
:100C6C0002FC000804FC000806FC000808FC000854
:100C7C000AFC00080CFC0008400000204400002086
:100C8C0080B483B000AF1B4BB3F900201A4B1A8011
:100C9C001A4BB3F90020184B5A80194BB3F90020AA
:100CAC00154B9A80174B1B88FB80FB88DAB2164BCE
:100CBC009A70FB881B0A9BB2DAB2134B5A70134B17
:100CCC001A78114BDA70124B1B88BB80BB88DAB2D6
:100CDC00104B1A70BB881B0A9BB2DAB20D4B5A70C0
:100CEC000D4B1A780B4B9A7000BF0C37BD4680BC6D
:100CFC00704700BF00FC00085401002002FC0008F3
:100D0C0004FC000806FC00084000002008FC000859
:100D1C000AFC0008440000200CFC000880B500AF61
:100D2C00064B00221A80054B00225A80034B0022EE
:100D3C009A80FFF7E5FE00BF80BD00BF5401002084
:100D4C0080B588B000AF07F1100300221A605A601A
:100D5C009A60DA601E4B9B691D4A43F02003936135
:100D6C001B4B9B6903F02003FB60FB68184B9B69D2
:100D7C00174A43F008039361154B9B6903F0080372
:100D8C00BB60BB68124B9B69114A43F0040393612F
:100D9C000F4B9B6903F004037B607B68012244F2D8
:100DAC0002010C4802F04EFB44F202033B610123AA
:100DBC007B610023BB610223FB6107F11003194621
:100DCC00044802F0BBF900BF2037BD4680BD00BF10
:100DDC0000100240000C014080B500AF124B134ACA
:100DEC001A60114B124A5A600F4B00229A600E4B3C
:100DFC000022DA600C4B4FF480421A610A4B00223D
:100E0C005A61094B00229A61074B0022DA61064BAA
:100E1C0000221A62044802F047FB0346002B01D063
:100E2C0000F0A2FB00BF80BD480000200054004031
:100E3C00801A060080B588B000AF786007F1100307
:100E4C0000221A605A609A60DA607B681B68454A17
:100E5C00934240F08280444B9B69434A43F0080321
:100E6C009361414B9B6903F00803FB60FB68C02353
:100E7C003B6112237B610323FB6107F110031946CD
:100E8C003A4802F05BF9384BDB69374A43F40013FC
:100E9C00D361354BDB6903F40013BB60BB68344B87
:100EAC00344A1A60324B00225A60314B00229A604D
:100EBC002F4B8022DA602E4B00221A612C4B002221
:100ECC005A612B4B00229A61294B4FF40052DA6184
:100EDC00274801F085FC0346002B01D000F044FBB1
:100EEC007B68234A9A63224A7B685362224B234ACB
:100EFC001A60214B10225A601F4B00229A601E4B25
:100F0C008022DA601C4B00221A611B4B00225A61B2
:100F1C00194B00229A61184B4FF40052DA611648B3
:100F2C0001F05EFC0346002B01D000F01DFB7B683A
:100F3C00114A5A63104A7B685362002200211F2019
:100F4C0001F017FC1F2001F030FC002200212020B2
:100F5C0001F00FFC202001F028FC00BF2037BD461B
:100F6C0080BD00BF0054004000100240000C014046
:100F7C009C00002080000240E00000206C00024039
:100F8C0080B586B004AF78604FF0FF330293012335
:100F9C000193164B0093012320223021786802F034
:100FAC0045FF0346002B01D001231AE04FF0FF331D
:100FBC000293012301930E4B009301232322302132
:100FCC00786802F033FF0346002B01D0012308E0C0
:100FDC00786800F00FF80346002B01D0012300E0E5
:100FEC00002318460837BD4680BD00BF0500002011
:100FFC000600002080B586B004AF78604FF0FF3358
:10100C000293012301930C4B009301230F223021F7
:10101C00786803F005F80346002B01D0012306E0A5
:10102C00054B1B78332B01D0012300E0002318461D
:10103C000837BD4680BD00BF2401002080B483B0BA
:10104C0000AF0346FB71FB79302B10D0302B10DC3A
:10105C00202B0AD0202B0CDC002B02D0102B02D022
:10106C0007E0074B06E0074B04E0074B02E0074B99
:10107C0000E0064B18460C37BD4680BC704700BFDD
:10108C006F12833A6F12033B6F12833BA69B443C57
:10109C0080B586B004AF78604FF0FF330293012324
:1010AC0001930B4B0093012327223021786802F027
:1010BC00B7FF0346002B01D0002304E0044B1B7840
:1010CC0003F00803DBB218460837BD4680BD00BFED
:1010DC002501002090B58DB004AF786039600023F5
:1010EC00FB830023BB8300237B835A4B1B781A465C
:1010FC004FF0FF33029306230193574B00930123C8
:10110C003021786802F08CFF0346002B01D00123BC
:10111C009CE0524B1B7803F00103002B09D04E4B83
:10112C005B781BB21B021AB24B4B1B781BB21343DE
:10113C00FB834A4B1B7803F00203002B09D0464B70
:10114C00DB781BB21B021AB2434B9B781BB21343C6
:10115C00BB83424B1B7803F00403002B09D03E4B9E
:10116C005B791BB21B021AB23B4B1B791BB21343AC
:10117C007B83B7F91E301846FFF79CF80446384BB2
:10118C001B781846FFF75AFF034619462046FFF70F
:10119C00E5F803464FF083411846FFF793F90346F1
:1011AC007B6130497869FFF7D9F803461846FFF799
:1011BC0025FA03461AB23B681A80B7F91C30184658
:1011CC00FFF778F80446264B1B781846FFF736FFD6
:1011DC00034619462046FFF7C1F803464FF08341FA
:1011EC001846FFF76FF903463B611E493869FFF754
:1011FC00B5F803461846FFF701FA03461AB23B68E6
:10120C005A80B7F91A301846FFF754F80446144BB5
:10121C001B781846FFF712FF034619462046FFF7C6
:10122C009DF803464FF083411846FFF74BF90346F0
:10123C00FB600C49F868FFF791F803461846FFF776
:10124C00DDF903461AB23B689A800023184624370E
:10125C00BD4690BD0700002028010020040000209E
:10126C000300002000007A4480B586B004AF78609B
:10127C000B46FB704FF0FF33029301230193194B84
:10128C000093012320223021786802F0C9FE034626
:10129C00002B01D0012320E0124B1B7803F00F032D
:1012AC00DAB2104B1A7097F903301B015AB20D4B7E
:1012BC001B785BB213435BB2DAB20A4B1A704FF075
:1012CC00FF33029301230193064B00930123202249
:1012DC003021786802F0AAFD034618460837BD464F
:1012EC0080BD00BF0500002080B586B004AF7860DB
:1012FC000B46FB70FB78302B01D9012333E04FF008
:10130C00FF33029301230193194B009301232322F2
:10131C003021786802F084FE0346002B01D00123B3
:10132C0021E0134B1B7823F03003DAB2104B1A7008
:10133C0097F9033003F030035AB20D4B1B785BB2B4
:10134C0013435BB2DAB20A4B1A704FF0FF330293BD
:10135C0001230193064B009301232322302178684B
:10136C0002F064FD034618460837BD4680BD00BF39
:10137C000600002080B586B004AF78600B46FB7089
:10138C00FB78072B01D9012333E04FF0FF33029395
:10139C0001230193194B00930123202230217868FB
:1013AC0002F03EFE0346002B01D0012321E0134B3B
:1013BC001B7823F00F03DAB2104B1A7097F9033035
:1013CC0003F007035AB20D4B1B785BB213435BB2AD
:1013DC00DAB20A4B1A704FF0FF33029301230193D8
:1013EC00064B0093012320223021786802F01EFD69
:1013FC00034618460837BD4680BD00BF05000020D7
:10140C0080B500AF01F058F800F010F8FFF798FC29
:10141C00FFF738FBFFF7E0FC00F05CFB00F0ECFCA6
:10142C0000F0AEF800F060F800BFFDE780B594B0B6
:10143C0000AF07F1280328220021184608F0D8F93C
:10144C0007F1140300221A605A609A60DA601A617C
:10145C003B1D00221A605A609A60DA600923BB6255
:10146C004FF48033FB624FF400333B630123BB63C7
:10147C0001233B6402237B644FF48033BB644FF441
:10148C00E013FB6407F12803184605F047FA0346FE
:10149C00002B01D000F068F80F237B610223BB61A5
:1014AC000023FB614FF480633B6200237B6207F1F6
:1014BC0014030221184605F0B3FC0346002B01D09F
:1014CC0000F052F801237B604FF40073BB603B1DAE
:1014DC00184605F035FE0346002B01D000F044F809
:1014EC0000BF5037BD4680BD80B500AFFFF7C8FBCD
:1014FC004FF47A7001F042F81748FFF741FD0346AC
:10150C00002B01D000F030F84FF47A7001F036F86F
:10151C00114800F0C1F90346002B01D000F024F86B
:10152C004FF47A7001F02AF80C4806F0DDFD4FF408
:10153C007A7001F023F800F049F94FF47A7001F059
:10154C001DF84FF4967001F019F801220449054872
:10155C0007F02CFA00BF80BD480000208401002059
:10156C00390000201802002080B500AF022103488A
:10157C0001F080FF72B600BF00BFFDE7000801401C
:10158C0080B582B000AF3B1D00210A461A800A4686
:10159C009A7000233B601D4B1D4A1A601B4B4FF089
:1015AC00FF325A60194B4FF480729A60174805F05D
:1015BC0033FF0346002B01D0FFF7D6FF00233B710E
:1015CC0000237B710023BB713B1D012219460F4880
:1015DC0005F0AEFF0346002B01D0FFF7C5FF01233A
:1015EC003B7001237B700123BB700023FB703B46D7
:1015FC0001221946054806F00BF90346002B01D0D1
:10160C00FFF7B2FF00BF0837BD4680BD3001002098
:10161C000028004080B584B000AF78607B681B6800
:10162C000B4A934210D105F06DF90A4BDB69094A5C
:10163C0043F00063D361074BDB6903F00063FB608D
:10164C00FB68054B01221A6000BF1037BD4680BDF8
:10165C0000280040001002403C04424280B584B097
:10166C0000AF78600023FB737B68B3F90030002B6C
:10167C00B8BF5B429AB2534BB3F90030002BB8BFE2
:10168C005B429BB29A4209D97B68B3F90030002BBC
:10169C00B8BF5B429BB21AB24A4B1A807B68B3F953
:1016AC000230002BB8BF5B429AB2464BB3F9023002
:1016BC00002BB8BF5B429BB29A4209D97B68B3F945
:1016CC000230002BB8BF5B429BB21AB23D4B5A8022
:1016DC007B68B3F90430002BB8BF5B429AB2394B2C
:1016EC00B3F90430002BB8BF5B429BB29A4209D9C4
:1016FC007B68B3F90430002BB8BF5B429BB21AB2C3
:10170C00304B9A807B68B3F90030002BB8BF5B423A
:10171C009AB22D4BB3F90030002BB8BF5B429BB291
:10172C009A420BD97B68B3F90030002BB8BF5B42EF
:10173C009BB21AB2244B1A800123FB737B68B3F95A
:10174C000230002BB8BF5B429AB21F4BB3F9023088
:10175C00002BB8BF5B429BB29A420BD97B68B3F9A2
:10176C000230002BB8BF5B429BB21AB2164B5A80A8
:10177C000123FB737B68B3F90430002BB8BF5B42C9
:10178C009AB2114BB3F90430002BB8BF5B429BB239
:10179C009A420BD97B68B3F90430002BB8BF5B427B
:1017AC009BB21AB2084B9A800123FB73FB7B002B74
:1017BC0003D0FFF7A5F90023FB7300BF1037BD461C
:1017CC0080BD00BF4C0100205401002080B500AF4B
:1017DC0021220021024808F00BF800BF80BD00BF99
:1017EC006001002080B584B000AF0346FB71294B2B
:1017FC0093F820301F2B01D9FFF7E8FF254B93F806
:10180C0020305A1CD1B2234A82F820101946214AA2
:10181C00FB7953541F4B93F82030022B06D11D4BF0
:10182C005B781D2B02D9FFF7D1FF30E0194B93F8F1
:10183C002030032B2BD9174B93F820301A46154B1D
:10184C005B7803339A4222D10023FB730023BB73D2
:10185C0008E0BB7B0F4AD25CFB7B1344FB73BB7B66
:10186C000133BB73BA7B0B4B93F82030013B9A428C
:10187C00EFDB084B93F82030013B064AD35CFA7B34
:10188C009A4202D10348FEF7FFFFFFF79FFF103784
:10189C00BD4680BD6001002080B586B002AF786087
:1018AC009423FB7307F10F024FF0FF3300930123D6
:1018BC008821786801F050FF0346002B01D00123EA
:1018CC0003E0022000F05AFE002318461037BD46F4
:1018DC0080BD80B586B002AF7860FD23FB7307F145
:1018EC000F024FF0FF33009301238821786801F039
:1018FC0033FF0346002B01D0012300E000231846E0
:10190C001037BD4680BD80B586B002AF78603960B7
:10191C0007F108024FF0FF33009306238821786803
:10192C0002F018F80346002B01D0012310E03B7A9B
:10193C001B029BB27A7A13439AB23B681A80FB7AE9
:10194C001B029BB23A7B13439AB23B685A8000232A
:10195C0018461037BD4680BD80B485B000AF154B1E
:10196C009B69144A43F001039361124B9B6903F08A
:10197C000103BB60BB680F4BDB690E4A43F080531D
:10198C00D3610C4BDB6903F080537B607B680A4BA3
:10199C005B68FB60FB6823F0E063FB60FB6843F073
:1019AC008063FB60044AFB68536000BF1437BD467C
:1019BC0080BC7047001002400000014080B400AFB2
:1019CC0000BFFDE780B400AF00BFFDE780B400AFFF
:1019DC0000BFFDE780B400AF00BFFDE780B400AFEF
:1019EC0000BFFDE780B400AF00BFBD4680BC7047B0
:1019FC0080B400AF00BFBD4680BC704780B400AF60
:101A0C0000BFBD4680BC704780B500AF00F09AFDAA
:101A1C0000BF80BD80B500AF024801F04FF800BF99
:101A2C0080BD00BFCC01002080B500AF024801F0A2
:101A3C0045F800BF80BD00BF6002002080B500AF3C
:101A4C00024801F03BF800BF80BD00BFA40200209B
:101A5C0080B500AF024801F031F800BF80BD00BF77
:101A6C00E000002080B500AF024801F027F800BF6D
:101A7C0080BD00BF9C00002080B500AF024806F07E
:101A8C0085FB00BF80BD00BF8401002080B500AF86
:101A9C00024802F039FD00BF80BD00BF48000020A5
:101AAC0080B500AF024802F0A0FE00BF80BD00BFB1
:101ABC004800002080B500AF024806F09DFF00BF33
:101ACC0080BD00BF1802002080B400AF00BFBD462F
:101ADC0080BC704780B586B000AF07F108030022C8
:101AEC001A605A609A60DA603B4600221A605A60AB
:101AFC001D4B4FF080421A601B4B41F61F425A603F
:101B0C00194B00229A60184B6322DA60164B0022A4
:101B1C001A61154B00229A61134806F025FA034608
:101B2C00002B01D0FFF720FD4FF48053BB6007F171
:101B3C00080319460C4806F019FC0346002B01D08B
:101B4C00FFF712FD00233B6000237B603B461946E8
:101B5C00054806F0FBFD0346002B01D0FFF704FD02
:101B6C0000BF1837BD4680BD8401002080B584B00D
:101B7C0000AF78607B681B68B3F1804F3BD1204B82
:101B8C00DB691F4A43F00103D3611D4BDB6903F092
:101B9C000103FB60FB681B4B1B4A1A60194B0022AC
:101BAC005A60184B00229A60164B8022DA60154B53
:101BBC004FF480721A61134B4FF480625A61114BCF
:101BCC0000229A610F4B0022DA610E4800F008FEE9
:101BDC000346002B01D0FFF7C7FC7B68094A1A6249
:101BEC00084A7B685362002200211C2000F0C1FDD2
:101BFC001C2000F0DAFD00BF1037BD4680BD00BFD1
:101C0C0000100240CC0100201C00024080B586B0C0
:101C1C0000AF0346FB80FB88002B46D0FB88B3F556
:101C2C00C87F42D8234AFB88138005F039FA7861C3
:101C3C00214B5B687B827B8A01331A467B69B3FB41
:101C4C00F2F3FB60FB88FA68B2FBF3F39BB2013B47
:101C5C007B81194B1B681A6A41F211131340002B3C
:101C6C000FD1154B1B681A6A40F244431340002BEA
:101C7C0007D1114B1B681A680F4B1B6822F001022D
:101C8C001A600D4B1B687A89DA627B890A4AD36029
:101C9C00094B1B6800225A62074B1B681A68064BDB
:101CAC001B6842F001021A6000E000BF1837BD4605
:101CBC0080BD00BF0C0000208401002080B483B0E4
:101CCC0000AF0346FB71FB79702B22D0702B23DC09
:101CDC00602B1CD0602B1FDC502B16D0502B1BDC28
:101CEC00402B10D0402B17DC302B0AD0302B13DCC0
:101CFC00102B02D0202B02D00EE001230DE00A2382
:101D0C000BE0192309E0322307E0642305E0C82324
:101D1C0003E04FF4C87300E0642318460C37BD464B
:101D2C0080BC704780B483B000AF0346FB71FB7975
:101D3C00702B22D0702B22DC602B1CD0602B1EDC75
:101D4C00502B16D0502B1ADC402B10D0402B16DC0D
:101D5C00302B0AD0302B12DC102B02D0202B02D0CF
:101D6C000DE001230CE002230AE0032308E0042326
:101D7C0006E0052304E0062302E0072300E0052328
:101D8C0018460C37BD4680BC7047000090B583B038
:101D9C0000AF0446084611461A462346FB7103461B
:101DAC00BB710B467B7113463B71104AFB799370E8
:101DBC000E4ABB7953700D4A7B79D3700C4A3B7930
:101DCC0013700B4A3B7E5370094A3B7F9370002281
:101DDC000749084805F0ACFB00220449054805F00A
:101DEC0017FD00BF0C37BD4690BD00BF1002002090
:101DFC00140200203001002080B500AF114B124AB4
:101E0C001A60104B4FF4E1325A600E4B00229A606C
:101E1C000C4B0022DA600B4B00221A61094B0C228E
:101E2C005A61084B00229A61064B0022DA61054880
:101E3C0006F0FCFC0346002B01D0FFF795FB00BF1E
:101E4C0080BD00BF180200200038014080B588B06A
:101E5C0000AF786007F1100300221A605A609A6094
:101E6C00DA607B681B68484A934240F08880474B95
:101E7C009B69464A43F480439361444B9B6903F44A
:101E8C008043FB60FB68414B9B69404A43F0040371
:101E9C0093613E4B9B6903F00403BB60BB684FF43A
:101EAC0000733B6102237B610323FB6107F1100389
:101EBC001946374801F042F94FF480633B61002327
:101ECC007B610023BB6107F110031946304801F018
:101EDC0035F9304B304A1A602E4B10225A602D4B7C
:101EEC0000229A602B4B8022DA602A4B00221A6166
:101EFC00284B00225A61274B00229A61254B4FF444
:101F0C008052DA61234800F06BFC0346002B01D0B1
:101F1C00FFF72AFB7B681F4A9A631E4A7B68536251
:101F2C001E4B1F4A1A601D4B00225A601B4B00228D
:101F3C009A601A4B8022DA60184B00221A61174BF8
:101F4C0000225A61154B00229A61144B4FF48052B7
:101F5C00DA61124800F044FC0346002B01D0FFF775
:101F6C0003FB7B680D4ADA630C4A7B6853620022E0
:101F7C000121252000F0FDFB252000F016FC00BF00
:101F8C002037BD4680BD00BF003801400010024024
:101F9C00000801406002002044000240A40200201E
:101FAC005800024080B485B000AF78600B46FB70DF
:101FBC000023FB730023BB7309E0BB7B7A681344DB
:101FCC001A78FB7B1344FB73BB7B0133BB73BA7B6B
:101FDC00FB78013B9A42F0DBFB7B18461437BD467D
:101FEC0080BC704780B582B000AF0346FB71FB79B3
:101FFC00803BDAB20F4B1A700E4B01225A700D4B0C
:10200C0000229A700B4B1A780A4B5B781344DAB2A5
:10201C00084B9B781344DAB2064BDA70064B01225C
:10202C001A7004220349054806F050FC00BF08371B
:10203C00BD4680BDE80200203800002018020020B8
:10204C0080B500AF3C4BB5221A703B4B0F225A7037
:10205C003A4B1B78332B0CBF01230023DBB21A46FF
:10206C00354B9A70364B1B88DAB2334BDA70344BE3
:10207C001B881B0A9BB2DAB22F4B1A71304B5B8850
:10208C00DAB22D4B5A712E4B5B881B0A9BB2DAB21B
:10209C00294B9A712B4B1A78274BDA712A4B1A78E9
:1020AC00254B1A72294B1A78234B5A72284B1B78E2
:1020BC00002B14BF01230023DBB21A461E4B9A726D
:1020CC00244BB3F90030DAB21B4BDA72214BB3F963
:1020DC0000301B121BB2DAB2174B1A731D4BB3F93B
:1020EC000230DAB2144B5A731A4BB3F902301B128A
:1020FC001BB2DAB2104B9A73164BB3F90430DAB246
:10210C000D4BDA73134BB3F904301B121BB2DAB25A
:10211C00094B1A7412210848FFF744FF03461A466C
:10212C00054B5A740C4B01221A70122202490B48AF
:10213C0006F0CCFB00BF80BDEC0200202401002087
:10214C005C0100200300002002000020040000209D
:10215C003A00002054010020380000201802002012
:10216C0080B500AF204BB7221A701F4B06225A7055
:10217C001E4BB3F90030DAB21B4B9A701B4BB3F900
:10218C0000301B121BB2DAB2174BDA70174BB3F9D3
:10219C000230DAB2144B1A71144BB3F902301B1221
:1021AC001BB2DAB2104B5A71104BB3F90430DAB2DD
:1021BC000D4B9A710D4BB3F904301B121BB2DAB2F2
:1021CC00094BDA7109210848FFF7ECFE03461A4661
:1021DC00054B1A72064B01221A7009220249054856
:1021EC0006F074FB00BF80BD0003002044010020FA
:1021FC00380000201802002080B500AF204BB92217
:10220C001A701F4B06225A701E4BB3F90030DAB20B
:10221C001B4B9A701B4BB3F900301B121BB2DAB27A
:10222C00174BDA70174BB3F90230DAB2144B1A7140
:10223C00144BB3F902301B121BB2DAB2104B5A71A9
:10224C00104BB3F90430DAB20D4B9A710D4BB3F954
:10225C0004301B121BB2DAB2094BDA71092108489F
:10226C00FFF7A0FE03461A46054B1A72064B0122D5
:10227C001A7009220249054806F028FB00BF80BDF0
:10228C000C0300204401002038000020180200201C
:10229C0080B500AF2C4BC0221A702B4B0C225A70FD
:1022AC002A4BB3F90030DAB2274B9A70274BB3F9AB
:1022BC0000301B121BB2DAB2234BDA70234BB3F98A
:1022CC000230DAB2204B1A71204BB3F902301B12D8
:1022DC001BB2DAB21C4B5A711C4BB3F90430DAB294
:1022EC00194B9A71194BB3F904301B121BB2DAB2A9
:1022FC00154BDA71164B9A78134B1A72144B5A7899
:10230C00114B5A72124BDA780F4B9A72114B1A7896
:10231C000D4BDA720F4B5A780B4B1A730D4B9A7894
:10232C00094B5A730F210848FFF73CFE03461A4627
:10233C00054B9A73084B01221A700F220249074869
:10234C0006F0C4FA00BF80BD180300205401002021
:10235C00400000204400002038000020180200201B
:10236C0080B500AF204BC1221A701F4B06225A7049
:10237C001E4BB3F90030DAB21B4B9A701B4BB3F9FE
:10238C0000301B121BB2DAB2174BDA70174BB3F9D1
:10239C000230DAB2144B1A71144BB3F902301B121F
:1023AC001BB2DAB2104B5A71104BB3F90430DAB2DB
:1023BC000D4B9A710D4BB3F904301B121BB2DAB2F0
:1023CC00094BDA7109210848FFF7ECFD03461A4660
:1023DC00054B1A72064B01221A7009220249054854
:1023EC0006F074FA00BF80BD280300204C010020C9
:1023FC00380000201802002080B500AF174BC22215
:10240C001A70164B04225A70154B1B88DAB2134BF8
:10241C009A70134B1B881B0A9BB2DAB20F4BDA7003
:10242C000F4B5B88DAB20D4B1A710D4B5B881B0A94
:10243C009BB2DAB2094B5A7107210848FFF7B2FD7B
:10244C0003461A46054B9A71064B01221A70072255
:10245C000249054806F03AFA00BF80BD340300205B
:10246C005C0100203800002018020020FFF72CFB34
:10247C000B480C490C4A002302E0D458C4500433D6
:10248C00C4188C42F9D3094A094C002301E01360AB
:10249C000432A242FBD307F0B3F9FEF7B1FF704749
:1024AC000000002018000020B4980008180000203C
:1024BC0060030020FEE7000080B500AF084B1B68EE
:1024CC00074A43F010031360032000F047F90F2074
:1024DC0000F008F8FFF740FA0023184680BD00BF53
:1024EC000020024080B582B000AF7860124B1A68B1
:1024FC00124B1B7819464FF47A73B3FBF1F3B2FB12
:10250C00F3F3184600F05FF90346002B01D00123CA
:10251C000EE07B680F2B0AD8002279684FF0FF3051
:10252C0000F027F9064A7B681360002300E00123C2
:10253C0018460837BD4680BD080000201400002056
:10254C001000002080B400AF054B1B781A46054BD9
:10255C001B681344034A136000BFBD4680BC704720
:10256C00140000203C03002080B400AF024B1B6819
:10257C001846BD4680BC70473C03002080B584B033
:10258C0000AF7860FFF7F0FFB8607B68FB60FB681A
:10259C00B3F1FF3F05D00A4B1B781A46FB68134476
:1025AC00FB6000BFFFF7E0FF0246BB68D31AFA6876
:1025BC009A42F7D800BF00BF1037BD4680BD00BFA0
:1025CC001400002080B485B000AF78607B6803F005
:1025DC000703FB600C4BDB68BB60BA684FF6FF036C
:1025EC001340BB60FB681A02BB68134343F0BF6324
:1025FC0043F40033BB60044ABB68D36000BF14379C
:10260C00BD4680BC704700BF00ED00E080B400AF59
:10261C00044BDB681B0A03F007031846BD4680BC5D
:10262C00704700BF00ED00E080B483B000AF0346FC
:10263C00FB7197F90730002B0BDBFB7903F01F02C2
:10264C00064997F907305B09012000FA02F241F8BC
:10265C00232000BF0C37BD4680BC704700E100E072
:10266C0080B483B000AF03463960FB7197F9073033
:10267C00002B0ADB3B68DAB20C4997F907301201E0
:10268C00D2B20B4483F800230AE03B68DAB2084963
:10269C00FB7903F00F03043B1201D2B20B441A7600
:1026AC0000BF0C37BD4680BC704700BF00E100E0A6
:1026BC0000ED00E080B489B000AFF860B9607A60DA
:1026CC00FB6803F00703FB61FB69C3F10703042BF1
:1026DC0028BF0423BB61FB690433062B02D9FB69B9
:1026EC00033B00E000237B614FF0FF32BB6902FA31
:1026FC0003F3DA43BB681A407B699A404FF0FF3111
:10270C007B6901FA03F3D9437B680B4013431846EA
:10271C002437BD4680BC704780B582B000AF78606E
:10272C007B68013BB3F1807F01D301230FE00A4AA0
:10273C007B68013B53600F214FF0FF30FFF790FF98
:10274C00054B00229A60044B07221A60002318469E
:10275C000837BD4680BD00BF10E000E080B582B0F8
:10276C0000AF78607868FFF72DFF00BF0837BD46D3
:10277C0080BD80B586B000AF0346B9607A60FB734C
:10278C0000237B61FFF742FF78617A68B96878694A
:10279C00FFF790FF024697F90F3011461846FFF7E6
:1027AC005FFF00BF1837BD4680BD80B582B000AF5B
:1027BC000346FB7197F907301846FFF735FF00BF4A
:1027CC000837BD4680BD80B582B000AF78607868B0
:1027DC00FFF7A2FF034618460837BD4680BD000030
:1027EC0080B485B000AF78600023FB607B68002B61
:1027FC0001D1012343E07B681B681A46224B13442A
:10280C00224AA2FB03231B099A007B681A647B688B
:10281C001F4ADA637B68022283F821207B681B68DD
:10282C001B68FB60FB6823F47F5323F03003FB60D1
:10283C007B685A687B689B681A437B68DB681A4321
:10284C007B681B691A437B685B691A437B689B69CD
:10285C001A437B68DB691343FA681343FB607B689C
:10286C001B68FA681A607B6800229A637B680122F5
:10287C0083F821207B68002283F82020002318464F
:10288C001437BD4680BC7047F8FFFDBFCDCCCCCC17
:10289C000000024080B586B000AFF860B9607A6085
:1028AC003B600023FB75FB6893F82030012B01D1B2
:1028BC0002234BE0FB68012283F82020FB6893F88D
:1028CC002130DBB2012B3AD1FB68022283F82120A4
:1028DC00FB6800229A63FB681B681A68FB681B681C
:1028EC0022F001021A603B687A68B968F86800F057
:1028FC00F8F9FB68DB6A002B08D0FB681B681A68C8
:10290C00FB681B6842F00E021A600FE0FB681B6844
:10291C001A68FB681B6822F004021A60FB681B68CB
:10292C001A68FB681B6842F00A021A60FB681B6895
:10293C001A68FB681B6842F001021A6005E0FB682C
:10294C00002283F820200223FB75FB7D18461837E4
:10295C00BD4680BD80B485B000AF78600023FB73AA
:10296C007B6893F82130DBB2022B08D07B68042201
:10297C009A637B68002283F82020012320E07B6887
:10298C001B681A687B681B6822F00E021A607B6851
:10299C001B681A687B681B6822F001021A607B684E
:1029AC001A6C7B68DB6B012101FA02F25A607B68BE
:1029BC00012283F821207B68002283F82020FB7BF6
:1029CC0018461437BD4680BC7047000080B584B0F3
:1029DC0000AF78600023FB737B6893F82130DBB287
:1029EC00022B05D07B6804229A630123FB7351E010
:1029FC007B681B681A687B681B6822F00E021A60E1
:102A0C007B681B681A687B681B6822F001021A60DD
:102A1C007B681B68224A934229D07B681B68214A39
:102A2C00934222D07B681B681F4A93421AD07B6862
:102A3C001B681E4A934212D07B681B681C4A934247
:102A4C000AD07B681B681B4A934202D14FF4801357
:102A5C000EE04FF080730BE04FF4803308E04FF43E
:102A6C00805305E04FF4807302E0102300E0012353
:102A7C00114A53607B68012283F821207B68002275
:102A8C0083F820207B685B6B002B03D07B685B6B2F
:102A9C0078689847FB7B18461037BD4680BD00BF51
:102AAC00080002401C00024030000240440002407A
:102ABC00580002406C0002400000024080B584B017
:102ACC0000AF78607B68DB6B1B68FB607B681B6806
:102ADC001B68BB607B681B6C04229A40FB6813402C
:102AEC00002B4FD0BB6803F00403002B4AD07B684B
:102AFC001B681B6803F02003002B07D17B681B6845
:102B0C001A687B681B6822F004021A607B681B68D9
:102B1C00664A934229D07B681B68654A934222D04F
:102B2C007B681B68634A93421AD07B681B68624AB5
:102B3C00934212D07B681B68604A93420AD07B6830
:102B4C001B685F4A934202D14FF480030EE04FF0B2
:102B5C0080630BE04FF4802308E04FF4804305E0E2
:102B6C004FF4806302E0402300E00423554A536095
:102B7C007B68DB6A002B00F094807B68DB6A7868EA
:102B8C0098478EE07B681B6C02229A40FB681340CE
:102B9C00002B56D0BB6803F00203002B51D07B688E
:102BAC001B681B6803F02003002B0BD17B681B6890
:102BBC001A687B681B6822F00A021A607B68012283
:102BCC0083F821207B681B68384A934229D07B68A4
:102BDC001B68374A934222D07B681B68354A934264
:102BEC001AD07B681B68344A934212D07B681B68EE
:102BFC00324A93420AD07B681B68314A934202D115
:102C0C004FF400130EE04FF000730BE04FF4003361
:102C1C0008E04FF4005305E04FF4007302E020236A
:102C2C0000E00223274A53607B68002283F82020AF
:102C3C007B689B6A002B34D07B689B6A78689847CA
:102C4C002FE07B681B6C08229A40FB681340002B1A
:102C5C0028D0BB6803F00803002B23D07B681B68CB
:102C6C001A687B681B6822F00E021A607B681A6C6B
:102C7C007B68DB6B012101FA02F25A607B6801224E
:102C8C009A637B68012283F821207B68002283F8F9
:102C9C0020207B681B6B002B04D07B681B6B786837
:102CAC00984700BF00BF1037BD4680BD08000240EA
:102CBC001C00024030000240440002405800024018
:102CCC006C0002400000024080B483B000AF78601A
:102CDC007B6893F82130DBB218460C37BD4680BCBC
:102CEC00704780B485B000AFF860B9607A603B6023
:102CFC00FB681A6CFB68DB6B012101FA02F25A606B
:102D0C00FB681B683A685A60FB685B68102B08D13B
:102D1C00FB681B687A689A60FB681B68BA68DA60A3
:102D2C0007E0FB681B68BA689A60FB681B687A68E6
:102D3C00DA6000BF1437BD4680BC7047F0B587B071
:102D4C0000AFF860B960C7E900230123FB750023CD
:102D5C00BB7500237B752F4B1B7E012B01D10223EE
:102D6C0054E02C4B01221A764CF2503000F0A8F8AB
:102D7C000346FB75FB7D002B44D1FB68012B02D174
:102D8C0001237B7507E0FB68022B02D102237B75C4
:102D9C0001E004237B750023BB752DE0BB7D5A003D
:102DAC00BB6802EB030CBB7D1901D7E90023C1F111
:102DBC002006A1F1200022FA01F403FA06F63443AE
:102DCC0023FA00F0044323FA01F5A3B21946604636
:102DDC0000F05AF84CF2503000F072F80346FB75D4
:102DEC000D4B1B690C4A23F001031361FB7D002B77
:102DFC0007D1BB7D0133BB75BA7D7B7D9A42CDD3A8
:102E0C0000E000BF034B00221A76FB7D18461C37EE
:102E1C00BD46F0BD400300200020024080B483B0CA
:102E2C0000AF0023FB710D4B1B6903F08003002BDB
:102E3C000DD00A4B0A4A5A60084B0A4A5A60074B93
:102E4C001B6903F08003002B01D00123FB71FB797C
:102E5C0018460C37BD4680BC704700BF00200240AE
:102E6C0023016745AB89EFCD80B400AF054B1B69DF
:102E7C00044A43F08003136100231846BD4680BC0E
:102E8C00704700BF0020024080B483B000AF786070
:102E9C000B467B80084B0022DA61084B1B69074A02
:102EAC0043F0010313617B687A881A8000BF0C37EA
:102EBC00BD4680BC704700BF40030020002002408C
:102ECC0080B584B000AF7860FFF74EFBF86010E07F
:102EDC007B68B3F1FF3F0CD07B68002B07D0FFF76A
:102EEC0043FB0246FB68D31A7A689A4201D2032349
:102EFC0025E0154BDB6803F00103002BE8D1124BE6
:102F0C00DB6803F02003002B02D00F4B2022DA6089
:102F1C000D4BDB6803F01003002B0BD10A4BDB6964
:102F2C0003F00103002B05D1074BDB6803F004030E
:102F3C00002B03D000F00AF8012300E00023184610
:102F4C001037BD4680BD00BF0020024080B483B066
:102F5C0000AF00237B60234BDB6803F01003002BD6
:102F6C0009D0214BDB6943F002031F4AD3617B6814
:102F7C0043F010037B601B4BDB6803F00403002B56
:102F8C0009D0194BDB6943F00103174AD3617B6805
:102F9C0043F004037B60134BDB6903F00103002B4C
:102FAC000BD0114BDB6943F004030F4AD3610D4B7B
:102FBC00DB690C4A23F00103D3617B6840F20112F8
:102FCC00934206D1074BDB69064A23F00103D36118
:102FDC0002E0044A7B68D36000BF0C37BD4680BC5E
:102FEC00704700BF002002404003002080B584B031
:102FFC0000AF786039600123FB730023BB602F4B5B
:10300C001B7E012B01D1022353E02C4B01221A769B
:10301C007B681B68022B16D14CF25030FFF750FF27
:10302C000346002B41D1012000F04CF84CF25030FB
:10303C00FFF746FF0346FB73214B1B69204A23F025
:10304C000403136131E04CF25030FFF739FF0346B3
:10305C00002B2AD13B684FF0FF321A607B689B68CB
:10306C00BB6019E0B86800F049F84CF25030FFF73B
:10307C0027FF0346FB73124B1B69114A23F0020313
:10308C001361FB7B002B03D03B68BA681A600CE021
:10309C00BB6803F58063BB607B68DB689A027B6866
:1030AC009B681344BA689A42DCD3044B00221A760C
:1030BC00FB7B18461037BD4680BD00BF4003002087
:1030CC000020024080B483B000AF7860094B00222E
:1030DC00DA61094B1B69084A43F004031361064B80
:1030EC001B69054A43F04003136100BF0C37BD4612
:1030FC0080BC7047400300200020024080B483B0A5
:10310C0000AF78600B4B0022DA610B4B1B690A4A4B
:10311C0043F002031361084A7B685361064B1B6939
:10312C00054A43F04003136100BF0C37BD4680BC19
:10313C00704700BF400300200020024080B48BB0D9
:10314C0000AF7860396000237B6200233B6269E149
:10315C0001227B6A02FA03F3FB613B681B68FA6984
:10316C001340BB61BA69FB699A4240F058813B68D5
:10317C005B689A4A93425ED0984A934275D8984AB3
:10318C00934258D0964A93426FD8964A934252D063
:10319C00944A934269D8944A93424CD0924A9342AF
:1031AC0063D8924A934246D0904A93425DD8122BF0
:1031BC002AD8122B59D801A252F823F04332000816
:1031CC001D3200082F3200087132000877320008D7
:1031DC00773200087732000877320008773200081F
:1031EC00773200087732000877320008773200080F
:1031FC0077320008773200087732000877320008FF
:10320C002532000839320008794A934213D02CE059
:10321C003B68DB683B6229E03B68DB6804333B625C
:10322C0024E03B68DB6808333B621FE03B68DB68EB
:10323C000C333B621AE03B689B68002B02D10423E1
:10324C003B6213E03B689B68012B05D108233B6272
:10325C007B68FA691A6109E008233B627B68FA69AA
:10326C005A6103E000233B6200E000BFBB69FF2B07
:10327C0001D87B6801E07B6804337B61BB69FF2B61
:10328C0002D87B6A9B0002E07B6A083B9B003B6197
:10329C007B691A680F213B6901FA03F3DB431A407F
:1032AC00396A3B6901FA03F31A437B691A603B687C
:1032BC005B6803F08053002B00F0B1804D4B9B6991
:1032CC004C4A43F0010393614A4B9B6903F00103A1
:1032DC00BB60BB68484A7B6A9B08023352F82330B8
:1032EC00FB607B6A03F003039B000F2202FA03F3DB
:1032FC00DB43FA681340FB607B68404A934213D06F
:10330C007B683F4A93420DD07B683E4A934207D07C
:10331C007B683D4A934201D1032306E0042304E079
:10332C00022302E0012300E000237A6A02F0030288
:10333C0092009340FA681343FB602F497B6A9B0809
:10334C000233FA6841F823203B685B6803F480136E
:10335C00002B06D02D4B9A682C49BB6913438B600C
:10336C0006E02A4B9A68BB69DB43284913408B6003
:10337C003B685B6803F40013002B06D0234BDA6820
:10338C002249BB691343CB6006E0204BDA68BB696A
:10339C00DB431E491340CB603B685B6803F400338E
:1033AC00002B06D0194B5A681849BB6913434B6064
:1033BC0006E0164B5A68BB69DB43144913404B605B
:1033CC003B685B6803F48033002B21D00F4B1A68E9
:1033DC000E49BB6913430B6021E000BF00003210A3
:1033EC00000031100000221000002110000012100B
:1033FC0000001110001002400000014000080140C4
:10340C00000C014000100140001401400004014078
:10341C000B4B1A68BB69DB43094913400B607B6A91
:10342C0001337B623B681A687B6A22FA03F3002B38
:10343C007FF48EAE00BF00BF2C37BD4680BC7047FA
:10344C000004014080B483B000AF78600B467B80F1
:10345C0013467B707B78002B03D07A887B681A61CB
:10346C0003E07B881A047B681A6100BF0C37BD46E9
:10347C0080BC704780B485B000AF78600B467B8011
:10348C007B68DB68FB607A88FB6813401A04FB6876
:10349C00D9437B880B401A437B681A6100BF1437F1
:1034AC00BD4680BC7047000080B584B000AF78602A
:1034BC007B68002B01D101232BE17B6893F83D3015
:1034CC00DBB2002B06D17B68002283F83C207868A5
:1034DC00FDF7B0FC7B68242283F83D207B681B68D9
:1034EC001A687B681B6822F001021A607B681B68F3
:1034FC001A687B681B6842F400421A607B681B6880
:10350C001A687B681B6822F400421A6003F0D2FD33
:10351C00F8607B685B68814A934207D8FB68804AF5
:10352C00934294BF01230023DBB206E0FB687D4A83
:10353C00934294BF01230023DBB2002B01D0012363
:10354C00E7E0FB68784AA2FB03239B0CBB607B681B
:10355C001B685B6823F03F017B681B68BA680A43F1
:10356C005A607B681B681B6A23F03F017B685B68B1
:10357C006A4A934202D8BB68013309E0BB684FF436
:10358C00967202FB03F3694AA2FB03239B090133E6
:10359C007A6812680B4313627B681B68DB6923F43F
:1035AC004F4222F0FF027B685B685C498B4219D862
:1035BC00FB68591E7B685B685B00B1FBF3F3591C1D
:1035CC0040F6FC730B40002B0AD0FB68591E7B683D
:1035DC005B685B00B1FBF3F30133C3F30B0351E006
:1035EC0004234FE07B689B68002B11D1FB68581EAD
:1035FC007B6859680B465B000B44B0FBF3F301335B
:10360C00C3F30B03002B0CBF01230023DBB212E02E
:10361C00FB68581E7B6859680B469B000B4499004D
:10362C000B44B0FBF3F30133C3F30B03002B0CBFC0
:10363C0001230023DBB2002B01D0012322E07B68A5
:10364C009B68002B0ED1FB68581E7B6859680B4693
:10365C005B000B44B0FBF3F30133C3F30B0343F4F4
:10366C0000430FE0FB68581E7B6859680B469B00B3
:10367C000B4499000B44B0FBF3F30133C3F30B037E
:10368C0043F44043796809681343CB617B681B683A
:10369C001B6823F0C0017B68DA697B681B6A1A43DC
:1036AC007B681B680A431A607B681B689B6823F461
:1036BC00034323F0FF037A6811697A68D2681143D7
:1036CC007A6812680B4393607B681B68DB6823F095
:1036DC00FF017B685A697B689B691A437B681B688E
:1036EC000A43DA607B681B681A687B681B6842F0C7
:1036FC0001021A607B6800221A647B68202283F81E
:10370C003D207B6800221A637B68002283F83E20F0
:10371C00002318461037BD4680BD00BFA0860100AF
:10372C007F841E00FF083D0083DE1B43D34D6210D7
:10373C0080B483B000AF78607B681B685B6903F072
:10374C008003802B03D17B681B6800221A6100BFA9
:10375C000C37BD4680BC704780B588B002AFF860AE
:10376C007A601A460B467B8113463B81FEF7FCFEC2
:10377C007861FB6893F83D30DBB2202B40F0E080A1
:10378C007B690093192301227049F86802F038FE16
:10379C000346002B01D00223D3E0FB6893F83C30A6
:1037AC00012B01D10223CCE0FB68012283F83C20E1
:1037BC00FB681B681B6803F00103012B07D0FB6837
:1037CC001B681A68FB681B6842F001021A60FB68F0
:1037DC001B681A68FB681B6822F400621A60FB689D
:1037EC00212283F83D20FB68102283F83E20FB68E1
:1037FC0000221A64FB687A685A62FB683A895A8517
:10380C00FB685B8D9AB2FB681A85FB68504ADA62DA
:10381C0079897B693A6AF86802F07CFA0346002BD6
:10382C0001D001238DE000233B61FB681B685B69C1
:10383C003B61FB681B689B693B613B6966E07A698D
:10384C00396AF86802F0F6FE0346002B0DD0FB68CF
:10385C001B6C042B07D1FB681B681A68FB681B6880
:10386C0042F400721A6001236BE0FB685B6A1A7801
:10387C00FB681B681A61FB685B6A5A1CFB685A621E
:10388C00FB685B8D9BB2013B9AB2FB685A85FB6867
:10389C001B8D013B9AB2FB681A85FB681B685B6940
:1038AC0003F00403042B1BD1FB681B8D002B17D0DA
:1038BC00FB685B6A1A78FB681B681A61FB685B6AB9
:1038CC005A1CFB685A62FB685B8D9BB2013B9AB237
:1038DC00FB685A85FB681B8D013B9AB2FB681A8505
:1038EC007A69396AF86802F0EDFE0346002B0DD0B8
:1038FC00FB681B6C042B07D1FB681B681A68FB6800
:10390C001B6842F400721A6001231AE0FB681B8DDD
:10391C00002B94D1FB681B681A68FB681B6842F487
:10392C0000721A60FB68202283F83D20FB6800229D
:10393C0083F83E20FB68002283F83C20002300E043
:10394C00022318461837BD4680BD00BF0200100088
:10395C000000FFFF80B58CB002AFF8607A601A46A9
:10396C000B467B8113463B8100233B62FEF7FCFD3B
:10397C007862FB6893F83D30DBB2202B40F04B8231
:10398C007B6A0093192301227F49F86802F038FD05
:10399C000346002B01D002233EE2FB6893F83C3037
:1039AC00012B01D1022337E2FB68012283F83C2072
:1039BC00FB681B681B6803F00103012B07D0FB6835
:1039CC001B681A68FB681B6842F001021A60FB68EE
:1039DC001B681A68FB681B6822F400621A60FB689B
:1039EC00222283F83D20FB68102283F83E20FB68DE
:1039FC0000221A64FB687A685A62FB683A895A8515
:103A0C00FB685B8D9AB2FB681A85FB685F4ADA62C9
:103A1C0079897B6A3A6BF86802F0FEF90346002B51
:103A2C0001D00123F8E1FB681B8D002B13D100237F
:103A3C00FB61FB681B685B69FB61FB681B689B692E
:103A4C00FB61FB69FB681B681A68FB681B6842F426
:103A5C0000721A60CCE1FB681B8D012B1ED1FB6838
:103A6C001B681A68FB681B6822F480621A6072B6C5
:103A7C0000BF0023BB61FB681B685B69BB61FB6813
:103A8C001B689B69BB61BB69FB681B681A68FB6898
:103A9C001B6842F400721A6062B635E0FB681B8D3D
:103AAC00022B1ED1FB681B681A68FB681B6842F46A
:103ABC0000621A6072B600BF00237B61FB681B6852
:103ACC005B697B61FB681B689B697B617B69FB683D
:103ADC001B681A68FB681B6822F480621A6062B665
:103AEC0012E0FB681B681A68FB681B6842F4806272
:103AFC001A6000233B61FB681B685B693B61FB68D8
:103B0C001B689B693B613B6972E1FB681B8D032B56
:103B1C0000F21F81FB681B8D012B23D17A6A396B54
:103B2C00F86802F049FE0346002B01D0012373E133
:103B3C00FB681B681A69FB685B6AD2B21A70FB6877
:103B4C005B6A5A1CFB685A62FB681B8D013B9AB27C
:103B5C00FB681A85FB685B8D9BB2013B9AB2FB68D4
:103B6C005A8545E1FB681B8D022B52D17B6A009371
:103B7C003B6B00220649F86802F042FC0346002B1E
:103B8C0008D0012348E100BF020010000000FFFF35
:103B9C000400010072B600BFFB681B681A68FB6862
:103BAC001B6842F400721A60FB681B681A69FB6898
:103BBC005B6AD2B21A70FB685B6A5A1CFB685A6269
:103BCC00FB681B8D013B9AB2FB681A85FB685B8D09
:103BDC009BB2013B9AB2FB685A8562B600BFFB6888
:103BEC001B681A69FB685B6AD2B21A70FB685B6A65
:103BFC005A1CFB685A62FB681B8D013B9AB2FB682E
:103C0C001A85FB685B8D9BB2013B9AB2FB685A85A7
:103C1C00EEE07B6A00933B6B00228149F86802F06E
:103C2C00EFFB0346002B01D00123F5E0FB681B687A
:103C3C001A68FB681B6822F480621A6072B600BFB7
:103C4C00FB681B681A69FB685B6AD2B21A70FB6866
:103C5C005B6A5A1CFB685A62FB681B8D013B9AB26B
:103C6C00FB681A85FB685B8D9BB2013B9AB2FB68C3
:103C7C005A856C4B1B68DB086B4AA2FB03231A0AA0
:103C8C0013469B001344DA00D31A3B623B6A013B98
:103C9C003B623B6A002B18D1FB6800221A63FB685D
:103CAC00202283F83D20FB68002283F83E20FB682D
:103CBC001B6C43F02002FB681A6462B600BFFB6801
:103CCC00002283F83C200123A6E0FB681B685B699B
:103CDC0003F00403042BD9D1FB681B681A68FB683A
:103CEC001B6842F400721A60FB681B681A69FB6857
:103CFC005B6AD2B21A70FB685B6A5A1CFB685A6228
:103D0C00FB681B8D013B9AB2FB681A85FB685B8DC7
:103D1C009BB2013B9AB2FB685A8562B600BFFB6846
:103D2C001B681A69FB685B6AD2B21A70FB685B6A23
:103D3C005A1CFB685A62FB681B8D013B9AB2FB68EC
:103D4C001A85FB685B8D9BB2013B9AB2FB685A8566
:103D5C004EE07A6A396BF86802F02EFD0346002BB0
:103D6C0001D0012358E0FB681B681A69FB685B6A89
:103D7C00D2B21A70FB685B6A5A1CFB685A62FB6809
:103D8C001B8D013B9AB2FB681A85FB685B8D9BB25D
:103D9C00013B9AB2FB685A85FB681B685B6903F0B0
:103DAC000403042B24D1FB681B8D032B07D1FB6868
:103DBC001B681A68FB681B6822F480621A60FB6837
:103DCC001B681A69FB685B6AD2B21A70FB685B6A83
:103DDC005A1CFB685A62FB681B8D013B9AB2FB684C
:103DEC001A85FB685B8D9BB2013B9AB2FB685A85C6
:103DFC00FB681B8D002B7FF488AEFB68202283F8B8
:103E0C003D20FB68002283F83E20FB68002283F8EB
:103E1C003C20002300E0022318462837BD4680BD15
:103E2C00040001000800002089B5F81480B588B0A2
:103E3C0002AFF860084611461A4603467B810B46D2
:103E4C003B811346FB80FEF78FFB7861FB6893F890
:103E5C003D30DBB2202B40F0D9807B6900931923D5
:103E6C0001226D49F86802F0CBFA0346002B01D011
:103E7C000223CCE0FB6893F83C30012B01D10223E8
:103E8C00C5E0FB68012283F83C20FB681B681B68BB
:103E9C0003F00103012B07D0FB681B681A68FB6851
:103EAC001B6842F001021A60FB681B681A68FB6809
:103EBC001B6822F400621A60FB68212283F83D2003
:103ECC00FB68402283F83E20FB6800221A64FB68E2
:103EDC003A6A5A62FB68BA8C5A85FB685B8D9AB257
:103EEC00FB681A85FB684D4ADA62F8883A89798949
:103EFC007B690193BB6A00930346F86802F05AF899
:103F0C000346002B52D0012381E07A69B96AF86824
:103F1C0002F090FB0346002B0DD0FB681B6C042BAE
:103F2C0007D1FB681B681A68FB681B6842F40072B7
:103F3C001A6001236BE0FB685B6A1A78FB681B68EC
:103F4C001A61FB685B6A5A1CFB685A62FB681B8D22
:103F5C00013B9AB2FB681A85FB685B8D9BB2013BF7
:103F6C009AB2FB685A85FB681B685B6903F0040313
:103F7C00042B1BD1FB681B8D002B17D0FB685B6AD5
:103F8C001A78FB681B681A61FB685B6A5A1CFB6831
:103F9C005A62FB681B8D013B9AB2FB681A85FB6861
:103FAC005B8D9BB2013B9AB2FB685A85FB681B8DFB
:103FBC00002BAAD17A69B96AF86802F083FB034630
:103FCC00002B0DD0FB681B6C042B07D1FB681B6806
:103FDC001A68FB681B6842F400721A60012316E031
:103FEC00FB681B681A68FB681B6842F400721A6055
:103FFC00FB68202283F83D20FB68002283F83E20DA
:10400C00FB68002283F83C20002300E002231846C2
:10401C001837BD4680BD00BF020010000000FFFF36
:10402C0080B58CB002AFF860084611461A460346BC
:10403C007B810B463B811346FB8000233B62FEF7E2
:10404C0093FA7862FB6893F83D30DBB2202B40F09A
:10405C0050827B6A0093192301228249F86802F08E
:10406C00CFF90346002B01D0022343E2FB6893F8FF
:10407C003C30012B01D102233CE2FB68012283F886
:10408C003C20FB681B681B6803F00103012B07D065
:10409C00FB681B681A68FB681B6842F001021A6017
:1040AC00FB681B681A68FB681B6822F400621A60C4
:1040BC00FB68222283F83D20FB68402283F83E20D7
:1040CC00FB6800221A64FB683A6B5A62FB68BA8E72
:1040DC005A85FB685B8D9AB2FB681A85FB68624A4D
:1040EC00DA62F8883A8979897B6A0193BB6B009311
:1040FC000346F86801F0F4FF0346002B01D00123BE
:10410C00F8E1FB681B8D002B13D10023FB61FB68CE
:10411C001B685B69FB61FB681B689B69FB61FB6946
:10412C00FB681B681A68FB681B6842F400721A6013
:10413C00CCE1FB681B8D012B1ED1FB681B681A6838
:10414C00FB681B6822F480621A6072B600BF002301
:10415C00BB61FB681B685B69BB61FB681B689B6987
:10416C00BB61BB69FB681B681A68FB681B6842F47F
:10417C0000721A6062B635E0FB681B8D022B1ED1F3
:10418C00FB681B681A68FB681B6842F400621A60C3
:10419C0072B600BF00237B61FB681B685B697B61A7
:1041AC00FB681B689B697B617B69FB681B681A68F1
:1041BC00FB681B6822F480621A6062B612E0FB682E
:1041CC001B681A68FB681B6842F480621A60002343
:1041DC003B61FB681B685B693B61FB681B689B6907
:1041EC003B613B6972E1FB681B8D032B00F21F8165
:1041FC00FB681B8D012B23D17A6AB96BF86802F02E
:10420C00DBFA0346002B01D0012373E1FB681B682A
:10421C001A69FB685B6AD2B21A70FB685B6A5A1C3B
:10422C00FB685A62FB681B8D013B9AB2FB681A85CE
:10423C00FB685B8D9BB2013B9AB2FB685A8545E1EA
:10424C00FB681B8D022B52D17B6A0093BB6B002247
:10425C000649F86802F0D4F80346002B08D0012375
:10426C0048E100BF020010000000FFFF0400010045
:10427C0072B600BFFB681B681A68FB681B6842F4C7
:10428C0000721A60FB681B681A69FB685B6AD2B221
:10429C001A70FB685B6A5A1CFB685A62FB681B8DC0
:1042AC00013B9AB2FB681A85FB685B8D9BB2013BA4
:1042BC009AB2FB685A8562B600BFFB681B681A6924
:1042CC00FB685B6AD2B21A70FB685B6A5A1CFB68AB
:1042DC005A62FB681B8D013B9AB2FB681A85FB681E
:1042EC005B8D9BB2013B9AB2FB685A85EEE07B6A10
:1042FC000093BB6B00228149F86802F081F80346F9
:10430C00002B01D00123F5E0FB681B681A68FB68E1
:10431C001B6822F480621A6072B600BFFB681B68CF
:10432C001A69FB685B6AD2B21A70FB685B6A5A1C2A
:10433C00FB685A62FB681B8D013B9AB2FB681A85BD
:10434C00FB685B8D9BB2013B9AB2FB685A856C4B48
:10435C001B68DB086B4AA2FB03231A0A13469B005B
:10436C001344DA00D31A3B623B6A013B3B623B6A63
:10437C00002B18D1FB6800221A63FB68202283F8FB
:10438C003D20FB68002283F83E20FB681B6C43F049
:10439C002002FB681A6462B600BFFB68002283F837
:1043AC003C200123A6E0FB681B685B6903F0040357
:1043BC00042BD9D1FB681B681A68FB681B6842F494
:1043CC0000721A60FB681B681A69FB685B6AD2B2E0
:1043DC001A70FB685B6A5A1CFB685A62FB681B8D7F
:1043EC00013B9AB2FB681A85FB685B8D9BB2013B63
:1043FC009AB2FB685A8562B600BFFB681B681A69E3
:10440C00FB685B6AD2B21A70FB685B6A5A1CFB6869
:10441C005A62FB681B8D013B9AB2FB681A85FB68DC
:10442C005B8D9BB2013B9AB2FB685A854EE07A6A6F
:10443C00B96BF86802F0C0F90346002B01D00123D8
:10444C0058E0FB681B681A69FB685B6AD2B21A7089
:10445C00FB685B6A5A1CFB685A62FB681B8D013B4C
:10446C009AB2FB681A85FB685B8D9BB2013B9AB2D2
:10447C00FB685A85FB681B685B6903F00403042B1B
:10448C0024D1FB681B8D032B07D1FB681B681A68B2
:10449C00FB681B6822F480621A60FB681B681A694F
:1044AC00FB685B6AD2B21A70FB685B6A5A1CFB68C9
:1044BC005A62FB681B8D013B9AB2FB681A85FB683C
:1044CC005B8D9BB2013B9AB2FB685A85FB681B8DD6
:1044DC00002B7FF488AEFB68202283F83D20FB681C
:1044EC00002283F83E20FB68002283F83C20002346
:1044FC0000E0022318462837BD4680BD04000100A9
:10450C000800002089B5F81480B588B000AF786039
:10451C000023BB617B681B685B687B617B68DB6A23
:10452C003B617B6893F83E30FB737B6893F83D30BE
:10453C00BB73FB7B102B03D0FB7B402B40F0C1806B
:10454C007B681B689B69BB617B681B685B69FB6153
:10455C00FB6903F00103002B0DD13B69B3F52A0F66
:10456C0003D03B69B3F12A4F01D1012300E00023B2
:10457C00012B00F03281FB6903F00103002B0CD0FE
:10458C007B695B0A03F00103002B06D0786802F00C
:10459C009EF9786800F099FD92E0FB69DB0803F066
:1045AC000103002B09D07B695B0A03F00103002B8C
:1045BC0003D0786800F00EFE82E0FB695B0803F024
:1045CC000103002B09D07B695B0A03F00103002B6C
:1045DC0003D0786800F027FE72E0BB699B0803F0FB
:1045EC000103002B3BD07B681B685B6803F4006302
:1045FC00B3F5006F00F0F380FB69DB0903F00103F6
:10460C00002B0FD07B699B0A03F00103002B09D010
:10461C00FB699B0803F00103002B03D1786800F0C1
:10462C00F1F94DE0FB699B0803F00103002B00F04E
:10463C00D6807B695B0A03F00103002B00F0CF806E
:10464C00BB7B212B03D1786800F078FAC7E0FB7BA9
:10465C00402B40F0C480786800F0E6FABFE07B683D
:10466C001B685B6803F40063B3F5006F00F0B78060
:10467C00FB699B0903F00103002B0FD07B699B0A9C
:10468C0003F00103002B09D0FB699B0803F0010325
:10469C00002B03D1786800F05FFB11E0FB699B08ED
:1046AC0003F00103002B00F09A807B695B0A03F096
:1046BC000103002B00F09380786800F015FC8EE06D
:1046CC008DE07B681B6C002B04D07B681B685B69DE
:1046DC00FB6107E07B681B689B69BB617B681B689F
:1046EC005B69FB61FB695B0803F00103002B12D0D3
:1046FC007B695B0A03F00103002B0CD07B681B6CFD
:10470C00002B03D07B681B689B69BB61B969786817
:10471C0000F0E0FF66E0FB691B0903F00103002BCE
:10472C0009D07B695B0A03F00103002B03D0786886
:10473C0001F01AF856E0BB7B212B02D0BB7B292B56
:10474C0025D1FB69DB0903F00103002B0FD07B693A
:10475C009B0A03F00103002B09D0FB699B0803F0B3
:10476C000103002B03D1786800F0F8FE39E0FB69F7
:10477C009B0803F00103002B33D07B695B0A03F029
:10478C000103002B2DD0786800F025FF29E0FB6990
:10479C009B0903F00103002B0FD07B699B0A03F0EC
:1047AC000103002B09D0FB699B0803F00103002BCC
:1047BC0003D1786800F02FFF14E0FB699B0803F02D
:1047CC000103002B0ED07B695B0A03F00103002B65
:1047DC0008D0786800F05DFF04E000BF02E000BF85
:1047EC0000E000BF2037BD4680BD80B58AB000AF69
:1047FC0078607B681B685B693B627B681B685B68E5
:10480C00FB6100237B627B6893F83E30FB763B6A4E
:10481C001B0A03F00103002B16D0FB691B0A03F0E3
:10482C000103002B10D07B6A43F001037B627B6891
:10483C001B686FF480725A617B681B681A687B680E
:10484C001B6842F400421A603B6A5B0A03F00103E6
:10485C00002B0ED0FB691B0A03F00103002B08D0C0
:10486C007B6A43F002037B627B681B686FF4007207
:10487C005A613B6A9B0A03F00103002B3FD0FB6992
:10488C001B0A03F00103002B39D0FB7EBB767B683F
:10489C005B8D9BB27B617B6893F83D30FB747B68CE
:1048AC001B6BFB60BB7E202B12D17B69002B0FD1C5
:1048BC00FB7C212B08D0FB7C292B05D0FB7C282BE7
:1048CC0006D1FB68212B03D1786801F07DF816E046
:1048DC007B681B686FF480625A617B6A43F0040347
:1048EC007B62FB7E102B02D0FB7E402B07D17B68BA
:1048FC001B681A687B681B6842F400721A603B6A7A
:10490C00DB0A03F00103002B0ED0FB691B0A03F03A
:10491C000103002B08D07B6A43F008037B627B68A1
:10492C001B686FF400625A617B6A002B08D07B68AD
:10493C001A6C7B6A1A437B681A64786801F0B8F8C1
:10494C0000BF2837BD4680BD80B483B000AF78600F
:10495C0000BF0C37BD4680BC704780B483B000AF3D
:10496C00786000BF0C37BD4680BC704780B483B004
:10497C0000AF786000BF0C37BD4680BC704780B478
:10498C0083B000AF786000BF0C37BD4680BC704769
:10499C0080B483B000AF78600B46FB7013463B804D
:1049AC0000BF0C37BD4680BC704780B483B000AFED
:1049BC00786000BF0C37BD4680BC704780B483B0B4
:1049CC0000AF786000BF0C37BD4680BC704780B428
:1049DC0083B000AF786000BF0C37BD4680BC704719
:1049EC0080B483B000AF786000BF0C37BD4680BC8C
:1049FC00704780B483B000AF786000BF0C37BD4601
:104A0C0080BC704780B584B000AF78607B6893F849
:104A1C003D30FB737B6893F83E30BB737B68DB6A7D
:104A2C00BB607B681B8D002B50D1FB7B212B4DD1A8
:104A3C00BB68082B1DD0BB68202B1AD0BB6813F5A4
:104A4C00803F16D07B681B685A687B681B6822F411
:104A5C00E0625A607B6811221A637B68002283F83B
:104A6C003E207B68202283F83D207868FFF76CFF9E
:104A7C0060E07B681B685A687B681B6822F4E06204
:104A8C005A607B681B681A687B681B6842F400726A
:104A9C001A607B6800221A637B68202283F83D2011
:104AAC007B6893F83E30DBB2402B07D17B68002249
:104ABC0083F83E207868FFF781FF3BE07B6800229B
:104ACC0083F83E207868FFF73FFF33E0FB7B212B18
:104ADC0005D0BB7B402B2DD1FB7B222B2AD17B68B5
:104AEC005B8D9BB2002B08D17B681B685A687B6876
:104AFC001B6822F480625A601CE07B6893F83E309D
:104B0C00DBB2402B03D1786800F08EF812E07B68A2
:104B1C005B6A1A787B681B681A617B685B6A5A1C33
:104B2C007B685A627B685B8D9BB2013B9AB27B6857
:104B3C005A85FFE700BF1037BD4680BD80B584B0F5
:104B4C0000AF78607B68DB6AFB607B6893F83D3074
:104B5C00DBB2212B64D17B685B8D9BB2002B12D016
:104B6C007B685B6A1A787B681B681A617B685B6A76
:104B7C005A1C7B685A627B685B8D9BB2013B9AB274
:104B8C007B685A854CE0FB68082B1DD0FB68202BFA
:104B9C001AD0FB6813F5803F16D07B681B685A68E7
:104BAC007B681B6822F4E0625A607B6811221A63EE
:104BBC007B68002283F83E207B68202283F83D200E
:104BCC007868FFF7C1FE2BE07B681B685A687B682E
:104BDC001B6822F4E0625A607B681B681A687B6869
:104BEC001B6842F400721A607B6800221A637B68AF
:104BFC00202283F83D207B6893F83E30DBB2402BBB
:104C0C0007D17B68002283F83E207868FFF7D6FE38
:104C1C0006E07B68002283F83E207868FFF794FE5C
:104C2C0000BF1037BD4680BD80B584B000AF786042
:104C3C007B6893F83D30FB737B681B6D002B1DD19B
:104C4C007B68DB6C012B0BD17B689B6CDAB27B68CD
:104C5C001B681A617B681B6D9A1C7B681A6577E070
:104C6C007B689B6C9BB21B12DAB27B681B681A6167
:104C7C007B681B6D5A1C7B681A6569E07B681B6D31
:104C8C00012B0BD17B689B6CDAB27B681B681A61B9
:104C9C007B681B6D5A1C7B681A6559E07B681B6D21
:104CAC00022B52D1FB7B222B0DD17B681B681A681F
:104CBC007B681B6842F480721A607B681B6D5A1CFF
:104CCC007B681A6544E07B685B8D9BB2002B15D02A
:104CDC00FB7B212B12D17B685B6A1A787B681B6883
:104CEC001A617B685B6A5A1C7B685A627B685B8DB5
:104CFC009BB2013B9AB27B685A8529E07B685B8D3D
:104D0C009BB2002B24D1FB7B212B21D17B681B6810
:104D1C005A687B681B6822F4E0625A607B681B68E7
:104D2C001A687B681B6842F400721A607B68002268
:104D3C001A637B68202283F83D207B68002283F86D
:104D4C003E207868FFF73AFE02E07868FEF7F0FC48
:104D5C0000BF1037BD4680BD80B584B000AF786011
:104D6C007B6893F83D30DBB2222B40F0B9807B6836
:104D7C00DB6AFB607B685B8D9BB2BB60BB68032B03
:104D8C0021D97B681B681A697B685B6AD2B21A707E
:104D9C007B685B6A5A1C7B685A627B685B8D9BB232
:104DAC00013B9AB27B685A857B685B8D9BB2032B67
:104DBC0040F096807B681B685A687B681B6822F4FD
:104DCC0080625A608CE07B68DB6A022B7FD0BB6808
:104DDC00012B02D0BB68002B79D1786801F0BAFCAA
:104DEC000346002B4CD17B681B681A687B681B68D8
:104DFC0022F480621A607B681B685A687B681B68A7
:104E0C0022F4E0625A607B681B681A697B685B6AF3
:104E1C00D2B21A707B685B6A5A1C7B685A627B68D8
:104E2C005B8D9BB2013B9AB27B685A857B682022D2
:104E3C0083F83D207B6893F83E30DBB2402B0AD1DF
:104E4C007B68002283F83E207B6800221A63786816
:104E5C00FFF7BDFD44E07B68002283F83E20FB6831
:104E6C00082B02D0FB68202B03D17B6800221A632D
:104E7C0002E07B6812221A637868FFF76EFD2FE060
:104E8C007B681B685A687B681B6822F4E0625A6076
:104E9C007B681B681A697B685B6AD2B21A707B6884
:104EAC005B6A5A1C7B685A627B685B8D9BB2013BC8
:104EBC009AB27B685A857B68202283F83D207B68F8
:104ECC00002283F83E207868FFF78AFD08E07B68B3
:104EDC001B685A687B681B6822F480625A60FFE783
:104EEC0000BF1037BD4680BD80B584B000AF786080
:104EFC007B68DB6AFB607B685B8D9BB2042B1BD1F0
:104F0C007B681B685A687B681B6822F480625A6055
:104F1C007B681B681A697B685B6AD2B21A707B6803
:104F2C005B6A5A1C7B685A627B685B8D9BB2013B47
:104F3C009AB27B685A85C4E07B685B8D9BB2032B6D
:104F4C0029D17B681B685A687B681B6822F48062D5
:104F5C005A60FB68042B0AD0FB68022B07D07B68D5
:104F6C001B681A687B681B6822F480621A607B6875
:104F7C001B681A697B685B6AD2B21A707B685B6AC1
:104F8C005A1C7B685A627B685B8D9BB2013B9AB260
:104F9C007B685A8595E07B685B8D9BB2022B7DD13B
:104FAC00FB68012B02D0FB68102B08D17B681B68B7
:104FBC001A687B681B6822F480621A6016E0FB6832
:104FCC00042B02D0FB68022B08D17B681B681A6883
:104FDC007B681B6842F480621A6007E07B681B6880
:104FEC001A687B681B6842F400721A607B681B6845
:104FFC001A697B685B6AD2B21A707B685B6A5A1C4E
:10500C007B685A627B685B8D9BB2013B9AB27B6872
:10501C005A857B681B681A697B685B6AD2B21A7006
:10502C007B685B6A5A1C7B685A627B685B8D9BB29F
:10503C00013B9AB27B685A857B681B685A687B680F
:10504C001B6822F440725A607B68202283F83D2052
:10505C007B6893F83E30DBB2402B0AD17B68002290
:10506C0083F83E207B6800221A637868FFF7AFFC58
:10507C0027E07B68002283F83E20FB68082B02D0D7
:10508C00FB68202B03D17B6800221A6302E07B684B
:10509C0012221A637868FFF760FC12E07B681B68C9
:1050AC001A697B685B6AD2B21A707B685B6A5A1C9D
:1050BC007B685A627B685B8D9BB2013B9AB27B68C2
:1050CC005A8500BF1037BD4680BD80B483B000AF99
:1050DC0078607B6893F83E30DBB2402B17D17B684D
:1050EC001B6D002B09D17B685B6CDBB21A467B68AD
:1050FC001B6802F0FE021A6167E07B685B6CDBB236
:10510C0043F00103DAB27B681B681A615DE07B68CF
:10511C001B69B3F5804F33D17B6893F83D30DBB21C
:10512C00212B09D17B685B6CDBB21A467B681B6850
:10513C0002F0FE021A6108E07B685B6CDBB243F0A4
:10514C000103DAB27B681B681A617B685B6B002B0E
:10515C0004D07B685B6B9B6A002B08D17B689B6BD4
:10516C00002B32D07B689B6B9B6A002B2DD07B680D
:10517C001B685A687B681B6842F400625A6024E022
:10518C007B681B6D002B0ED17B685B6C9BB2DB11BB
:10519C00DBB203F00603DBB263F00F03DAB27B6819
:1051AC001B681A6111E07B681B6D012B0DD17B68AC
:1051BC005B6C9BB2DB11DBB203F00603DBB263F07A
:1051CC000E03DAB27B681B681A6100BF0C37BD4650
:1051DC0080BC704780B483B000AF78607B685B6C38
:1051EC00DAB27B681B681A617B685B6B002B04D09E
:1051FC007B685B6B9B6A002B08D17B689B6B002BDD
:10520C000CD07B689B6B9B6A002B07D07B681B6860
:10521C005A687B681B6842F400625A6000BF0C3706
:10522C00BD4680BC704780B491B000AF78607B689D
:10523C0093F83E3087F83F307B68DB6ABB637B6852
:10524C001B6B7B637B6893F83D30DBB2222B40F009
:10525C0074817B681B6D002B0FD197F83F30402B6E
:10526C000BD100233B637B681B685B693B637B68EA
:10527C001B689B693B633B6B6BE17B681B6D002B75
:10528C001DD17B681B69B3F5404F18D10023FB621D
:10529C007B681B685B69FB627B681B689B69FB62B4
:1052AC00FB6A7B681B681A687B681B6842F4807217
:1052BC001A607B681B6D5A1C7B681A6549E17B6818
:1052CC005B8D9BB2002B13D10023BB627B681B68E8
:1052DC005B69BB627B681B689B69BB62BB6A7B6852
:1052EC001B681A687B681B6842F400721A6020E124
:1052FC007B685B8D9BB2012B40F08A80BB6B13F5F6
:10530C00803F37D17B681B681A687B681B6822F466
:10531C0080621A607B681B685B6803F40063B3F5FA
:10532C00006F13D17B681B681A687B681B6822F4BA
:10533C0080621A6000237B627B681B685B697B62FE
:10534C007B681B689B697B627B6AF2E000233B6293
:10535C007B681B685B693B627B681B689B693B6273
:10536C003B6A7B681B681A687B681B6842F4007296
:10537C001A60DEE0BB6B082B2ED0BB6B202B2BD026
:10538C007B6B122B02D1BB6B012B25D1BB6B042B7E
:10539C000ED0BB6B022B0BD0BB6B102B08D07B68D9
:1053AC001B681A687B681B6822F480621A6007E02D
:1053BC007B681B681A687B681B6842F480621A6001
:1053CC000023FB617B681B685B69FB617B681B6866
:1053DC009B69FB61FB69ACE07B681B681A687B68A6
:1053EC001B6822F480621A600023BB617B681B6817
:1053FC005B69BB617B681B689B69BB61BB697B6834
:10540C001B681A687B681B6842F400721A6090E093
:10541C007B685B8D9BB2022B58D1BB6B042B21D0CC
:10542C00BB6B022B1ED0BB6B102B1BD07B681B687D
:10543C001A687B681B6842F400621A6000237B6167
:10544C007B681B685B697B617B681B689B697B6104
:10545C007B697B681B681A687B681B6822F4806216
:10546C001A6012E07B681B681A687B681B6842F440
:10547C0080621A6000233B617B681B685B693B613F
:10548C007B681B689B693B613B697B681B685B683D
:10549C0003F40063B3F5006F4BD1BB6B13F5803F86
:1054AC000BD0BB6B012B08D0BB6B082B05D0BB6B97
:1054BC00102B02D0BB6B202B3BD17B681B685A682E
:1054CC007B681B6842F480525A6032E07B681B6830
:1054DC001A687B681B6842F480621A607B681B68E0
:1054EC005B6803F40063B3F5006F17D1BB6B13F566
:1054FC00803F0BD0BB6B012B08D0BB6B082B05D0AE
:10550C00BB6B102B02D0BB6B202B07D17B681B68AD
:10551C005A687B681B6842F480525A600023FB6017
:10552C007B681B685B69FB607B681B689B69FB6025
:10553C00FB687B6800221A650BE00023BB607B686C
:10554C001B685B69BB607B681B689B69BB60BB6845
:10555C00FFE700BF4437BD4680BC704780B584B0C0
:10556C0000AF78607B6893F83D30FB737B685B8D94
:10557C009BB2002B2BD07B685B6A1A787B681B680C
:10558C001A617B685B6A5A1C7B685A627B685B8D0C
:10559C009BB2013B9AB27B685A857B685B8D9BB250
:1055AC00002B14D1FB7B292B11D17B681B685A680B
:1055BC007B681B6822F480625A607B6821221A6324
:1055CC007B68282283F83D207868FFF7CFF900BF6D
:1055DC001037BD4680BD80B483B000AF78607B6867
:1055EC005B8D9BB2002B11D07B685B6A1A787B6851
:1055FC001B681A617B685B6A5A1C7B685A627B6801
:10560C005B8D9BB2013B9AB27B685A8500BF0C370D
:10561C00BD4680BC704780B584B000AF78607B68B5
:10562C0093F83D30FB737B685B8D9BB2002B2CD0C9
:10563C007B681B681A697B685B6AD2B21A707B68DC
:10564C005B6A5A1C7B685A627B685B8D9BB2013B20
:10565C009AB27B685A857B685B8D9BB2002B14D108
:10566C00FB7B2A2B11D17B681B685A687B681B68F3
:10567C0022F480625A607B6822221A637B6828229B
:10568C0083F83D207868FFF77AF900BF1037BD46E4
:10569C0080BD80B483B000AF78607B685B8D9BB2BB
:1056AC00002B12D07B681B681A697B685B6AD2B2CC
:1056BC001A707B685B6A5A1C7B685A627B685B8DCC
:1056CC009BB2013B9AB27B685A8500BF0C37BD4632
:1056DC0080BC704780B584B000AF7860396000231F
:1056EC00FB737B6893F83D30DBB203F02803282B67
:1056FC0027D17B681B685A687B681B6822F4806220
:10570C005A603B689B0803F00103002B01D1012375
:10571C00FB733B68DB0903F00103002B03D17B68AF
:10572C00DB68BB8102E07B689B69BB817B680022E4
:10573C0083F83C20BA89FB7B19467868FFF728F977
:10574C000EE00023BB607B681B685B69BB607B68F9
:10575C001B689B69BB60BB687B68002283F83C209C
:10576C0000BF1037BD4680BD80B584B000AF7860F7
:10577C007B6893F83D30FB737B681B685A687B68C9
:10578C001B6822F4E0625A600023BB607B681B68D4
:10579C005B69BB607B681B681A687B681B6842F09E
:1057AC0001021A60BB687B681B681A687B681B68FF
:1057BC0022F480621A607B681B685B6803F40063E8
:1057CC00B3F5006F72D1FB7B222B02D0FB7B2A2B13
:1057DC0035D17B689B6B1B685B689AB27B685A857A
:1057EC007B685B8D9BB2002B05D07B681B6C43F0F8
:1057FC0004027B681A647B681B685A687B681B68A8
:10580C0022F400625A607B689B6B1846FDF75CFAC9
:10581C000346012B49D07B689B6B694A5A637B68B2
:10582C009B6B1846FDF7D2F80346002B3DD07B68E6
:10583C009B6B5B6B7A68926B1046984735E07B6884
:10584C005B6B1B685B689AB27B685A857B685B8D67
:10585C009BB2002B05D07B681B6C43F004027B6869
:10586C001A647B681B685A687B681B6822F40062A8
:10587C005A607B685B6B1846FDF726FA0346012BD2
:10588C0014D07B685B6B4E4A5A637B685B6B184623
:10589C00FDF79CF80346002B08D07B685B6B5B6BB9
:1058AC007A68526B1046984700E000BF7B685B8DAE
:1058BC009BB2002B3ED07B681B685B6903F0040332
:1058CC00042B12D17B681B681A697B685B6AD2B2A5
:1058DC001A707B685B6A5A1C7B685A627B685B8DAA
:1058EC009BB2013B9AB27B685A857B681B685B69EB
:1058FC0003F04003402B12D17B681B681A697B684C
:10590C005B6AD2B21A707B685B6A5A1C7B685A62FB
:10591C007B685B8D9BB2013B9AB27B685A857B6836
:10592C005B8D9BB2002B05D07B681B6C43F0040293
:10593C007B681A647B681B6C002B03D0786800F0C2
:10594C00B7F839E0FB7B2A2B09D17B6800221A635C
:10595C007B68282283F83D207868FFF710F87B6875
:10596C0093F83D30DBB2282B11D17B68154ADA62F3
:10597C007B6800221A637B68202283F83D207B68B9
:10598C00002283F83E207868FFF70FF814E07B685C
:10599C001B6B222B02D0FB7B222B0DD17B680022B0
:1059AC001A637B68202283F83D207B68002283F8F1
:1059BC003E207868FEF7E3FF00BF1037BD4680BD80
:1059CC00BD6200080000FFFF80B584B000AF7860B6
:1059DC007B6893F83D30FB737B68DB6ABB60BB680C
:1059EC00082B02D0BB68202B29D1FB7B282B26D17E
:1059FC007B682E4ADA627B681B685A687B681B6876
:105A0C0022F4E0625A607B681B686FF480625A6112
:105A1C007B681B681A687B681B6822F480621A60BA
:105A2C007B6800221A637B68202283F83D207B6808
:105A3C00002283F83E207868FEF7B7FF31E0FB7B4D
:105A4C00212B29D17B68194ADA627B6821221A63DF
:105A5C007B68202283F83D207B68002283F83E205F
:105A6C007B681B685A687B681B6822F4E0625A608A
:105A7C007B681B686FF480625A617B681B681A68CC
:105A8C007B681B6822F480621A607868FDF750FE10
:105A9C007868FEF76BFF04E07B681B686FF480622C
:105AAC005A6100BF1037BD4680BD00BF0000FFFF2C
:105ABC0080B584B000AF78607B6893F83D30FB73A1
:105ACC007B6893F83E30BB73BB7B102B02D0BB7B47
